:100000000C9434000C9451000C9451000C94510049
:100010000C9451000C9451000C9451000C9451001C
:100020000C9451000C9451000C9451000C940C024F
:100030000C9451000C9451000C9451000C945100FC
:100040000C9451000C9451000C9454020C949B029B
:100050000C9451000C9451000C9451000C945100DC
:100060000C9451000C94510011241FBECFEFD8E026
:10007000DEBFCDBF11E0A0E0B1E0EEEAFBE002C0E0
:1000800005900D92A035B107D9F722E0A0E5B1E0C7
:1000900001C01D92A430B207E1F70E9439010C940F
:1000A000D5050C94000087B1816087B988B18E7F37
:1000B00088B92FEF80EE90E0215080409040E1F72A
:1000C00000C0000087B18E7F87B93099FECF309B8A
:1000D000FECF3099FECF089520E030E080E011C0DF
:1000E000309BFECF90EA9A95F1F7309B05C090E0E7
:1000F000880F991F816001C0880F3099FECF2F5F54
:100100003F4F2830310564F30895EF92FF920F932B
:100110001F93CF93DF93F82EE92E162F072FF89415
:100120000E9453000E946C00C6EED1E088830E94BA
:100130006C0089830E946C008A830E946C008B8310
:100140000E946C008C83388189812A819B81830F76
:10015000820F890F97B1916097B998B1916098B962
:1001600078949C81891326C0998188811F929F93DE
:100170001F928F9380E091E09F938F93EF92FF9275
:100180000E94EB029B818A811F929F931F928F9303
:100190008AE191E09F938F930F931F930E94EB024C
:1001A0008DB79EB740960FB6F8949EBF0FBE8DBF19
:1001B00081E001C080E0DF91CF911F910F91FF900E
:1001C000EF9008950F931F93CF93DF9360E571E055
:1001D00082E891E00E94850062E871E084EB91E0A2
:1001E0000E94E402C4EBD1E0FE0101900020E9F797
:1001F00031970DE010E01183008360E571E0CE01DE
:100200000E94D90209900020E9F7219719830883F9
:1002100084EB91E0DF91CF911F910F91089588E4D5
:100220008093B8001092B900089584EA8093BC00CE
:100230008091BC008823E4F7089584E98093BC0092
:1002400008958093BB0084E88093BC008091BC003B
:100250008823E4F7089520E4829FC0011124846874
:100260008093BC008091BC008823E4F78091BB00A0
:100270000895CF93DF93CDB7DEB7A5970FB6F89467
:10028000DEBF0FBECDBF0E943C020E9482010E94D1
:10029000ED010E94FC0178940E9406028823E1F39C
:1002A0000E9409020E94900129833A834B835C8358
:1002B0006D837E838F831F922F931F923F931F9294
:1002C0004F9381E391E09F938F938E01085F1F4FBF
:1002D0001F930F930E94EB02C8010E944C022FEF64
:1002E00089E698E1215080409040E1F700C000008D
:1002F0000E94E2000E944C020FB6F894DEBF0FBECF
:10030000CDBFCACF0E940F010895982F92959F707C
:10031000990F292F220F220F920F8F70890F0895A6
:10032000CF93DF93CDB7DEB72E970FB6F894DEBF2D
:100330000FBECDBF0E94150180ED0E94210180E01B
:100340000E9421010E94150181ED0E94210181E09E
:100350000E942B010E948501888781E00E942B0169
:100360000E948501898781E00E942B010E948501FE
:100370008A8781E00E942B010E9485018B8781E0A2
:100380000E942B010E9485018C8781E00E942B0135
:100390000E9485018D8780E00E942B010E948501CB
:1003A0008E870E941D0187E0FE013896DE011196BE
:1003B00001900D928A95E1F729813A814B815C8108
:1003C0006D817E818F8190E02E960FB6F894DEBF0E
:1003D0000FBECDBFDF91CF91089510928000E1E86C
:1003E000F0E0108280818B60808388EA91E69093B0
:1003F00089008093880008951092850010928400EF
:10040000EFE6F0E080818260808308958091EC01C6
:1004100008951092EC0108951F920F920FB60F925B
:1004200011248F938091EB018F5F8093EB018431D6
:1004300029F41092EB0181E08093EC018F910F90F1
:100440000FBE0F901F901895E1ECF0E080818F7740
:1004500080830895E1ECF0E08081806880830895D6
:10046000E1ECF0E080818F7D80830895E1ECF0E0A5
:1004700080818062808308951092C50087E6809312
:10048000C40086E08093C20088E18093C1000E948E
:100490002A020E9436020895BC018AEF91E00E9470
:1004A000E4020E94360208951F920F920FB60F9237
:1004B00011242F933F934F935F936F937F938F9369
:1004C0009F93AF93BF93EF93FF938091C6008D30BE
:1004D00071F4E091EE01F0E0E051FE4F10821092D5
:1004E000EE0181E08093EF010E94240213C0883066
:1004F00031F48091EE0181508093EE010BC0E091C8
:10050000EE01F0E0E051FE4F80838091EE018F5FBD
:100510008093EE01FF91EF91BF91AF919F918F91E9
:100520007F916F915F914F913F912F910F900FBEEF
:100530000F901F9018951F920F920FB60F921124D3
:100540002F933F934F935F936F937F938F939F93DB
:10055000AF93BF93EF93FF93F894E091ED01F0E038
:10056000E650FE4F8081882371F0E091ED01F0E0CC
:10057000E650FE4F80818093C6008091ED018F5F31
:100580008093ED0104C01092ED010E943002789436
:10059000FF91EF91BF91AF919F918F917F916F915B
:1005A0005F914F913F912F910F900FBE0F901F9031
:1005B0001895FB01DC010D900020E9F711970190DF
:1005C0000D920020E1F70895FB01DC0101900D92EE
:1005D0000020E1F70895AEE0B0E0E1EFF2E00C9426
:1005E000AC050D891E8986E08C831A8309838FEF01
:1005F0009FE79E838D83AE01475E5F4F6F89788D45
:10060000CE0101960E940D03EF81F885E00FF11FE6
:1006100010822E96E4E00C94C805ABE0B0E0E3E174
:10062000F3E00C949E056C017B018A01FC011782AA
:100630001682838181FFCCC1CE0101963C01F60177
:100640009381F70193FD859193FF81917F01882329
:1006500009F4BAC1853239F493FD859193FF8191F4
:100660007F01853229F4B60190E00E940405E7CFAE
:10067000912C212C312CFFE1F315D8F08B3279F03D
:1006800038F4803279F08332A1F4232D20611DC02B
:100690008D3261F0803369F4232D216016C0832DE3
:1006A0008260382EE32DE4603E2E2AC0F32DF860E0
:1006B0001DC037FC2DC020ED280F2A3040F08E32AF
:1006C000B9F436FC81C1232D2064322E19C036FEC8
:1006D00006C08AE0989E200D1124922E11C0EAE0F7
:1006E0002E9E200D1124222EF32DF0623F2E08C0E5
:1006F0008C3621F4832D8068382E02C0883641F470
:10070000F70193FD859193FF81917F018111B3CF13
:10071000982F9F7D9554933028F40C5F1F4F9FE3D3
:1007200099830DC0833631F0833771F0833509F03A
:1007300059C021C0F801808189830E5F1F4F882432
:100740008394912C530113C02801F2E04F0E511CE9
:10075000F801A080B18036FE03C0692D70E002C0B0
:100760006FEF7FEFC5010E94F9044C018201F32D68
:10077000FF773F2E16C0280122E0420E511CF801DF
:10078000A080B18036FE03C0692D70E002C06FEF1B
:100790007FEFC5010E94EE044C01F32DF0683F2E5F
:1007A000820133FC1BC0822D90E088169906B0F4BC
:1007B000B60180E290E00E9404052A94F4CFF5018E
:1007C00037FC859137FE81915F01B60190E00E9470
:1007D000040521102A9421E0821A910881149104C1
:1007E00071F7E8C0843611F0893641F5F80137FE1B
:1007F00007C060817181828193810C5F1F4F08C0A7
:1008000060817181072E000C880B990B0E5F1F4FC2
:10081000F32DFF763F2E97FF09C090958095709538
:1008200061957F4F8F4F9F4FF0683F2E2AE030E059
:10083000A3010E944005882E861845C0853731F4F3
:10084000232D2F7EB22E2AE030E025C0932D997FF4
:10085000B92E8F36C1F018F4883579F0B5C08037DD
:1008600019F0883721F0B0C0E92FE061BE2EB4FE48
:100870000DC0FB2DF460BF2E09C034FE0AC0292F25
:100880002660B22E06C028E030E005C020E130E04E
:1008900002C020E132E0F801B7FE07C0608171813B
:1008A000828193810C5F1F4F06C06081718180E05F
:1008B00090E00E5F1F4FA3010E944005882E86180E
:1008C000FB2DFF773F2E36FE0DC0232D2E7FA22E4F
:1008D000891458F434FE0BC032FC09C0832D8E7E7F
:1008E000A82E05C0B82CA32C03C0B82C01C0B92C6D
:1008F000A4FE0FC0FE01E80DF11D8081803321F4BC
:100900009A2D997EA92E09C0A2FE06C0B394B39475
:1009100004C08A2D867809F0B394A3FC11C0A0FE10
:1009200006C0B21488F4280C922C9B180EC0B21486
:1009300060F4B60180E290E00E940405B394F7CF22
:10094000B21418F42B1802C0982C212CA4FE10C04D
:10095000B60180E390E00E940405A2FE17C0A1FC4E
:1009600003C088E790E002C088E590E0B6010CC0C3
:100970008A2D867859F0A1FE02C08BE201C080E288
:10098000A7FC8DE2B60190E00E940405891438F4BA
:10099000B60180E390E00E9404059A94F7CF8A9410
:1009A000F301E80DF11D8081B60190E00E9404057D
:1009B0008110F5CF222009F442CEB60180E290E00A
:1009C0000E9404052A94F6CFF6018681978102C021
:1009D0008FEF9FEF2B96E2E10C94BA05FC01059096
:1009E000615070400110D8F7809590958E0F9F1F31
:1009F0000895FC016150704001900110D8F7809576
:100A000090958E0F9F1F08950F931F93CF93DF93A1
:100A1000FB01238121FD03C08FEF9FEF2CC022FF3C
:100A200016C046815781248135814217530744F40B
:100A3000A081B1819D012F5F3F4F318320838C9333
:100A4000268137812F5F3F4F3783268314C08B0168
:100A5000EC01FB010084F185E02D0995892BE1F67D
:100A6000D80116968D919C911797019617969C9395
:100A70008E931697CE01DF91CF911F910F9108951C
:100A8000FA01AA27283051F1203181F1E8946F93BF
:100A90006E7F6E5F7F4F8F4F9F4FAF4FB1E03ED065
:100AA000B4E03CD0670F781F891F9A1FA11D680F03
:100AB000791F8A1F911DA11D6A0F711D811D911D36
:100AC000A11D20D009F468943F912AE0269F1124AB
:100AD0003019305D3193DEF6CF010895462F47700F
:100AE000405D4193B3E00FD0C9F7F6CF462F4F706A
:100AF000405D4A3318F0495D31FD4052419302D0C8
:100B0000A9F7EACFB4E0A69597958795779567956D
:100B1000BA95C9F700976105710508959B01AC016D
:100B20000A2E06945795479537952795BA95C9F794
:100B3000620F731F841F951FA01D08952F923F926F
:100B40004F925F926F927F928F929F92AF92BF92DD
:100B5000CF92DF92EF92FF920F931F93CF93DF9389
:100B6000CDB7DEB7CA1BDB0B0FB6F894DEBF0FBEE6
:100B7000CDBF09942A88398848885F846E847D8433
:100B80008C849B84AA84B984C884DF80EE80FD8035
:100B90000C811B81AA81B981CE0FD11D0FB6F894AB
:0E0BA000DEBF0FBECDBFED010895F894FFCF6C
:100BAE0048756D656461642052656C617469766127
:100BBE003A202532642E2531640054656D706572BD
:100BCE0061747572613A202532642E25316420439A
:100BDE0000486F72612061637475616C3A20253034
:100BEE0032643A253032643A253032640D0A000000
:00000001FF
