:100000000C9434000C9451000C9451000C94510049
:100010000C9451000C9451000C9451000C9451001C
:100020000C9451000C9451000C9451000C94A601B6
:100030000C9451000C9451000C9451000C945100FC
:100040000C9451000C9451000C94F7010C943E0256
:100050000C9451000C9451000C9451000C945100DC
:100060000C9451000C94510011241FBECFEFD8E026
:10007000DEBFCDBF11E0A0E0B1E0E0EFFAE002C0EA
:1000800005900D92A438B107D9F721E0A4E8B1E0BA
:1000900001C01D92AE39B207E1F70E94CF000C9467
:1000A00076050C940000CF93DF93EC0165E571E0D9
:1000B0000E947C020097B1F068E571E0CE010E94D9
:1000C0007C02892B51F06CE571E0CE010E947C022C
:1000D000892B31F482E090E005C081E090E002C01D
:1000E00083E090E0DF91CF91089582E191E00E945A
:1000F000E60108958091840108950E9453008130A3
:10010000910581F01CF4892B39F008958230910516
:1001100091F00397A9F0089581E0809384010E94F3
:10012000900108951092840180E691E00E94E6011A
:100130000E949A01089582E191E00E94E6010895EB
:1001400080E091E00E94E601089588E48093B80081
:100150001092B900089584EA8093BC008091BC009D
:100160008823E4F7089584E98093BC000895809380
:10017000BB0084E88093BC008091BC008823E4F736
:10018000089520E4829FC001112484688093BC00FC
:100190008091BC008823E4F78091BB000895CF9341
:1001A000DF93CDB7DEB7A5970FB6F894DEBF0FBECD
:1001B000CDBF0E94D6010E9416010E9481010E94BB
:1001C00075000E94900178940E94F101882341F00B
:1001D0000E94F4010E94EE010E947D000E94C40171
:1001E0000E947A00882381F30E94A001882361F392
:1001F0000E94A3010E9424011F922F931F923F93FC
:100200001F924F9386E691E09F938F938E01085F34
:100210001F4F1F930F930E948C02C8010E94E6019A
:100220000FB6F894DEBF0FBECDBFCECF0E94A500A3
:100230000895982F92959F70990F292F220F220FC2
:10024000920F8F70890F0895CF93DF93CDB7DEB7EC
:100250002E970FB6F894DEBF0FBECDBF0E94AB0045
:1002600080ED0E94B70080E00E94B7000E94AB00C2
:1002700081ED0E94B70081E00E94C1000E94190137
:10028000888781E00E94C1000E941901898781E06E
:100290000E94C1000E9419018A8781E00E94C1006A
:1002A0000E9419018B8781E00E94C1000E94190100
:1002B0008C8781E00E94C1000E9419018D8780E037
:1002C0000E94C1000E9419018E870E94B30087E03E
:1002D000FE013896DE01119601900D928A95E1F7A4
:1002E00029813A814B815C816D817E818F8190E093
:1002F0002E960FB6F894DEBF0FBECDBFDF91CF9123
:10030000089510928000E1E8F0E0108280818B6017
:10031000808388EA91E6909389008093880008950D
:100320001092850010928400EFE6F0E080818260F8
:1003300080830895EFE6F0E080818D7F80830895CB
:100340008091860108951092860108951F920F9260
:100350000FB60F9211248F93809185018F5F809348
:1003600085018A3029F41092850181E0809386010D
:100370008F910F900FBE0F901F901895E1ECF0E059
:1003800080818F7780830895E1ECF0E08081806840
:1003900080830895E1ECF0E080818F7D8083089573
:1003A000E1ECF0E080818062808308951092C500C6
:1003B00087E68093C40086E08093C20088E1809342
:1003C000C1000E94C4010E94D0010895BC0184E9CB
:1003D00091E00E9485020E94D00108958AE891E090
:1003E00008958091890108951092890108951F92BE
:1003F0000F920FB60F9211242F933F934F935F9359
:100400006F937F938F939F93AF93BF93EF93FF93DC
:100410008091C6008D3071F4E0918801F0E0E657DC
:10042000FE4F10821092880181E0809389010E9422
:10043000BE0113C0883031F48091880181508093CF
:1004400088010BC0E0918801F0E0E657FE4F808301
:10045000809188018F5F80938801FF91EF91BF9118
:10046000AF919F918F917F916F915F914F913F914C
:100470002F910F900FBE0F901F9018951F920F9203
:100480000FB60F9211242F933F934F935F936F9367
:100490007F938F939F93AF93BF93EF93FF93F894C2
:1004A000E0918701F0E0EC56FE4F8081882371F0E7
:1004B000E0918701F0E0EC56FE4F80818093C6000A
:1004C000809187018F5F8093870104C0109287011C
:1004D0000E94CA017894FF91EF91BF91AF919F91D3
:1004E0008F917F916F915F914F913F912F910F90DD
:1004F0000FBE0F901F901895FB01DC018D910190AC
:1005000080190110D9F3990B0895FB01DC010190CA
:100510000D920020E1F70895AEE0B0E0E2E9F2E0EC
:100520000C944D050D891E8986E08C831A830983FE
:100530008FEF9FE79E838D83AE01475E5F4F6F898C
:10054000788DCE0101960E94AE02EF81F885E00F12
:10055000F11F10822E96E4E00C946905ABE0B0E048
:10056000E4EBF2E00C943F056C017B018A01FC0195
:1005700017821682838181FFCCC1CE0101963C0196
:10058000F6019381F70193FD859193FF81917F019E
:10059000882309F4BAC1853239F493FD859193FF1C
:1005A00081917F01853229F4B60190E00E94A50473
:1005B000E7CF912C212C312CFFE1F315D8F08B32B1
:1005C00079F038F4803279F08332A1F4232D206160
:1005D0001DC08D3261F0803369F4232D216016C077
:1005E000832D8260382EE32DE4603E2E2AC0F32D49
:1005F000F8601DC037FC2DC020ED280F2A3040F0D8
:100600008E32B9F436FC81C1232D2064322E19C0FC
:1006100036FE06C08AE0989E200D1124922E11C04D
:10062000EAE02E9E200D1124222EF32DF0623F2EA3
:1006300008C08C3621F4832D8068382E02C088369D
:1006400041F4F70193FD859193FF81917F01811121
:10065000B3CF982F9F7D9554933028F40C5F1F4F94
:100660009FE399830DC0833631F0833771F0833572
:1006700009F059C021C0F801808189830E5F1F4FA6
:1006800088248394912C530113C02801F2E04F0E6B
:10069000511CF801A080B18036FE03C0692D70E0C6
:1006A00002C06FEF7FEFC5010E949A044C018201E6
:1006B000F32DFF773F2E16C0280122E0420E511C79
:1006C000F801A080B18036FE03C0692D70E002C041
:1006D0006FEF7FEFC5010E948F044C01F32DF0688E
:1006E0003F2E820133FC1BC0822D90E088169906B4
:1006F000B0F4B60180E290E00E94A5042A94F4CF01
:10070000F50137FC859137FE81915F01B60190E0DC
:100710000E94A50421102A9421E0821A91088114D4
:10072000910471F7E8C0843611F0893641F5F8017B
:1007300037FE07C060817181828193810C5F1F4FFA
:1007400008C060817181072E000C880B990B0E5F29
:100750001F4FF32DFF763F2E97FF09C09095809590
:10076000709561957F4F8F4F9F4FF0683F2E2AE025
:1007700030E0A3010E94E104882E861845C0853729
:1007800031F4232D2F7EB22E2AE030E025C0932DA8
:10079000997FB92E8F36C1F018F4883579F0B5C03D
:1007A000803719F0883721F0B0C0E92FE061BE2E04
:1007B000B4FE0DC0FB2DF460BF2E09C034FE0AC08C
:1007C000292F2660B22E06C028E030E005C020E1C7
:1007D00030E002C020E132E0F801B7FE07C06081DE
:1007E0007181828193810C5F1F4F06C0608171818E
:1007F00080E090E00E5F1F4FA3010E94E104882E6D
:100800008618FB2DFF773F2E36FE0DC0232D2E7F41
:10081000A22E891458F434FE0BC032FC09C0832D7B
:100820008E7EA82E05C0B82CA32C03C0B82C01C006
:10083000B92CA4FE0FC0FE01E80DF11D80818033AC
:1008400021F49A2D997EA92E09C0A2FE06C0B39468
:10085000B39404C08A2D867809F0B394A3FC11C028
:10086000A0FE06C0B21488F4280C922C9B180EC06F
:10087000B21460F4B60180E290E00E94A504B39443
:10088000F7CFB21418F42B1802C0982C212CA4FE18
:1008900010C0B60180E390E00E94A504A2FE17C03C
:1008A000A1FC03C088E790E002C088E590E0B601B3
:1008B0000CC08A2D867859F0A1FE02C08BE201C0DF
:1008C00080E2A7FC8DE2B60190E00E94A5048914A5
:1008D00038F4B60180E390E00E94A5049A94F7CF23
:1008E0008A94F301E80DF11D8081B60190E00E9429
:1008F000A5048110F5CF222009F442CEB60180E292
:1009000090E00E94A5042A94F6CFF6018681978193
:1009100002C08FEF9FEF2B96E2E10C945B05FC0188
:100920000590615070400110D8F7809590958E0F1A
:100930009F1F0895FC016150704001900110D8F78D
:10094000809590958E0F9F1F08950F931F93CF93BF
:10095000DF93FB01238121FD03C08FEF9FEF2CC0AC
:1009600022FF16C0468157812481358142175307E3
:1009700044F4A081B1819D012F5F3F4F31832083DB
:100980008C93268137812F5F3F4F3783268314C096
:100990008B01EC01FB010084F185E02D0995892B89
:1009A000E1F6D80116968D919C91179701961796AE
:1009B0009C938E931697CE01DF91CF911F910F914B
:1009C0000895FA01AA27283051F1203181F1E894E5
:1009D0006F936E7F6E5F7F4F8F4F9F4FAF4FB1E032
:1009E0003ED0B4E03CD0670F781F891F9A1FA11D2D
:1009F000680F791F8A1F911DA11D6A0F711D811D2E
:100A0000911DA11D20D009F468943F912AE0269FF2
:100A100011243019305D3193DEF6CF010895462F51
:100A20004770405D4193B3E00FD0C9F7F6CF462F32
:100A30004F70405D4A3318F0495D31FD405241939B
:100A400002D0A9F7EACFB4E0A69597958795779558
:100A50006795BA95C9F700976105710508959B01DF
:100A6000AC010A2E06945795479537952795BA9568
:100A7000C9F7620F731F841F951FA01D08952F9241
:100A80003F924F925F926F927F928F929F92AF921E
:100A9000BF92CF92DF92EF92FF920F931F93CF936B
:100AA000DF93CDB7DEB7CA1BDB0B0FB6F894DEBF02
:100AB0000FBECDBF09942A88398848885F846E8428
:100AC0007D848C849B84AA84B984C884DF80EE8072
:100AD000FD800C811B81AA81B981CE0FD11D0FB67B
:100AE000F894DEBF0FBECDBFED010895F894FFCF9F
:100AF000636F6D6D616E6420696E76616C69646FA1
:100B00000D004269656E76656E69646F0D4F4E3AF1
:100B1000207061726120656E63656E6465722C2061
:100B20004F46462070617261206170616761722C6E
:100B3000205253542070617261207265696E69633E
:100B40006961720D004F4E004F46460052535400EB
:100B50000D4F66660D00486F7261206163747561A8
:100B60006C3A20253032643A253032643A253032EE
:040B7000640D0A0006
:00000001FF
