S00B00005450332E7372656342
S11300000C9434000C9451000C9451000C94510045
S11300100C9451000C9451000C9451000C94510018
S11300200C9451000C9451000C9451000C943C011C
S11300300C9451000C9451000C9451000C945100F8
S11300400C9451000C9451000C9484010C94CB0139
S11300500C9451000C9451000C9451000C945100D8
S11300600C9451000C94510011241FBECFEFD8E022
S1130070DEBFCDBF11E0A0E0B1E0E8EFF9E002C0DF
S113008005900D92AE31B107D9F721E0AEE1B1E0B0
S113009001C01D92A733B207E1F70E947D000C94C2
S11300A0FA040C94000088E48093B8001092B9001C
S11300B0089584EA8093BC008091BC008823E4F70F
S11300C0089584E98093BC0008958093BB0084E87C
S11300D08093BC008091BC008823E4F7089520E459
S11300E0829FC001112484688093BC008091BC006D
S11300F08823E4F78091BB000895CF93DF93CDB7B5
S1130100DEB7A5970FB6F894DEBF0FBECDBF0E9431
S11301106C010E94B2000E941D010E942C0178947F
S11301200E9436018823E1F30E9439010E94C00035
S11301301F922F931F923F931F924F9380E091E061
S11301409F938F938E01085F1F4F1F930F930E94FD
S11301501002C8010E947C010FB6F894DEBF0FBEE6
S1130160CDBFDECF0E9453000895982F92959F70C3
S1130170990F292F220F220F920F8F70890F089544
S1130180CF93DF93CDB7DEB72E970FB6F894DEBFCB
S11301900FBECDBF0E94590080ED0E94650080E033
S11301A00E9465000E94590081ED0E94650081E073
S11301B00E946F000E94B500888781E00E946F0052
S11301C00E94B500898781E00E946F000E94B500FB
S11301D08A8781E00E946F000E94B5008B8781E0CE
S11301E00E946F000E94B5008C8781E00E946F001E
S11301F00E94B5008D8780E00E946F000E94B500C8
S11302008E870E94610087E0FE013896DE01119618
S113021001900D928A95E1F729813A814B815C81A5
S11302206D817E818F8190E02E960FB6F894DEBFAB
S11302300FBECDBFDF91CF91089510928000E1E809
S1130240F0E0108280818B60808388EA91E690934D
S1130250890080938800089510928500109284008C
S1130260EFE6F0E0808182608083089580911F0131
S1130270089510921F0108951F920F920FB60F92C6
S113028011248F9380911E018F5F80931E0184310E
S113029029F410921E0181E080931F018F910F9029
S11302A00FBE0F901F901895E1ECF0E080818F77DE
S11302B080830895E1ECF0E0808180688083089574
S11302C0E1ECF0E080818F7D80830895E1ECF0E043
S11302D080818062808308951092C50087E68093B0
S11302E0C40086E08093C20088E18093C1000E942C
S11302F05A010E9466010895BC018DE291E00E94BA
S113030009020E94660108951F920F920FB60F9280
S113031011242F933F934F935F936F937F938F9306
S11303209F93AF93BF93EF93FF938091C6008D305B
S113033071F4E0912101F0E0ED5DFE4F1082109226
S1130340210181E0809322010E94540113C088306E
S113035031F4809121018150809321010BC0E091FF
S11303602101F0E0ED5DFE4F8083809121018F5FDC
S113037080932101FF91EF91BF91AF919F918F9154
S11303807F916F915F914F913F912F910F900FBE8D
S11303900F901F9018951F920F920FB60F92112471
S11303A02F933F934F935F936F937F938F939F9379
S11303B0AF93BF93EF93FF93F894E0912001F0E0A3
S11303C0E35DFE4F8081882371F0E0912001F0E02D
S11303D0E35DFE4F80818093C600809120018F5F92
S11303E08093200104C0109220010E94600178943F
S11303F0FF91EF91BF91AF919F918F917F916F91F9
S11304005F914F913F912F910F900FBE0F901F90CE
S11304101895FB01DC0101900D920020E1F708958D
S1130420AEE0B0E0E6E1F2E00C94D1040D891E895F
S113043086E08C831A8309838FEF9FE79E838D83E5
S1130440AE01475E5F4F6F89788DCE0101960E94A1
S11304503202EF81F885E00FF11F10822E96E4E05E
S11304600C94ED04ABE0B0E0E8E3F2E00C94C304D8
S11304706C017B018A01FC0117821682838181FF52
S1130480CCC1CE0101963C01F6019381F70193FDA5
S1130490859193FF81917F01882309F4BAC1853244
S11304A039F493FD859193FF81917F01853229F47D
S11304B0B60190E00E942904E7CF912C212C312C25
S11304C0FFE1F315D8F08B3279F038F4803279F00B
S11304D08332A1F4232D20611DC08D3261F080335D
S11304E069F4232D216016C0832D8260382EE32DFC
S11304F0E4603E2E2AC0F32DF8601DC037FC2DC0E9
S113050020ED280F2A3040F08E32B9F436FC81C138
S1130510232D2064322E19C036FE06C08AE0989E30
S1130520200D1124922E11C0EAE02E9E200D1124DC
S1130530222EF32DF0623F2E08C08C3621F4832D39
S11305408068382E02C0883641F4F70193FD859106
S113055093FF81917F018111B3CF982F9F7D955493
S1130560933028F40C5F1F4F9FE399830DC08336AB
S113057031F0833771F0833509F059C021C0F80197
S1130580808189830E5F1F4F88248394912C5301AB
S113059013C02801F2E04F0E511CF801A080B18075
S11305A036FE03C0692D70E002C06FEF7FEFC50116
S11305B00E941E044C018201F32DFF773F2E16C0CA
S11305C0280122E0420E511CF801A080B18036FEC1
S11305D003C0692D70E002C06FEF7FEFC5010E9478
S11305E013044C01F32DF0683F2E820133FC1BC031
S11305F0822D90E088169906B0F4B60180E290E06E
S11306000E9429042A94F4CFF50137FC859137FE22
S113061081915F01B60190E00E94290421102A947F
S113062021E0821A91088114910471F7E8C084369C
S113063011F0893641F5F80137FE07C060817181F8
S1130640828193810C5F1F4F08C060817181072EE6
S1130650000C880B990B0E5F1F4FF32DFF763F2E76
S113066097FF09C090958095709561957F4F8F4F46
S11306709F4FF0683F2E2AE030E0A3010E946504FA
S1130680882E861845C0853731F4232D2F7EB22E4F
S11306902AE030E025C0932D997FB92E8F36C1F022
S11306A018F4883579F0B5C0803719F0883721F00F
S11306B0B0C0E92FE061BE2EB4FE0DC0FB2DF46086
S11306C0BF2E09C034FE0AC0292F2660B22E06C0F0
S11306D028E030E005C020E130E002C020E132E053
S11306E0F801B7FE07C060817181828193810C5F3C
S11306F01F4F06C06081718180E090E00E5F1F4F44
S1130700A3010E946504882E8618FB2DFF773F2ED7
S113071036FE0DC0232D2E7FA22E891458F434FEEC
S11307200BC032FC09C0832D8E7EA82E05C0B82CC8
S1130730A32C03C0B82C01C0B92CA4FE0FC0FE0129
S1130740E80DF11D8081803321F49A2D997EA92E24
S113075009C0A2FE06C0B394B39404C08A2D86785F
S113076009F0B394A3FC11C0A0FE06C0B21488F42F
S1130770280C922C9B180EC0B21460F4B60180E2CF
S113078090E00E942904B394F7CFB21418F42B1804
S113079002C0982C212CA4FE10C0B60180E390E086
S11307A00E942904A2FE17C0A1FC03C088E790E0C0
S11307B002C088E590E0B6010CC08A2D867859F015
S11307C0A1FE02C08BE201C080E2A7FC8DE2B6016B
S11307D090E00E942904891438F4B60180E390E083
S11307E00E9429049A94F7CF8A94F301E80DF11D2D
S11307F08081B60190E00E9429048110F5CF222067
S113080009F442CEB60180E290E00E9429042A94C1
S1130810F6CFF6018681978102C08FEF9FEF2B966A
S1130820E2E10C94DF04FC0105906150704001107A
S1130830D8F7809590958E0F9F1F0895FC01615005
S1130840704001900110D8F7809590958E0F9F1FEE
S113085008950F931F93CF93DF93FB01238121FD11
S113086003C08FEF9FEF2CC022FF16C04681578133
S1130870248135814217530744F4A081B1819D013D
S11308802F5F3F4F318320838C93268137812F5FE5
S11308903F4F3783268314C08B01EC01FB01008496
S11308A0F185E02D0995892BE1F6D80116968D91F5
S11308B09C911797019617969C938E931697CE0149
S11308C0DF91CF911F910F910895FA01AA27283043
S11308D051F1203181F1E8946F936E7F6E5F7F4F09
S11308E08F4F9F4FAF4FB1E03ED0B4E03CD0670F85
S11308F0781F891F9A1FA11D680F791F8A1F911DD8
S1130900A11D6A0F711D811D911DA11D20D009F427
S113091068943F912AE0269F11243019305D319369
S1130920DEF6CF010895462F4770405D4193B3E052
S11309300FD0C9F7F6CF462F4F70405D4A3318F0F9
S1130940495D31FD4052419302D0A9F7EACFB4E0AA
S1130950A6959795879577956795BA95C9F7009762
S11309606105710508959B01AC010A2E0694579503
S1130970479537952795BA95C9F7620F731F841F5A
S1130980951FA01D08952F923F924F925F926F92F0
S11309907F928F929F92AF92BF92CF92DF92EF920B
S11309A0FF920F931F93CF93DF93CDB7DEB7CA1B8C
S11309B0DB0B0FB6F894DEBF0FBECDBF09942A88B7
S11309C0398848885F846E847D848C849B84AA845F
S11309D0B984C884DF80EE80FD800C811B81AA81EC
S11309E0B981CE0FD11D0FB6F894DEBF0FBECDBFB7
S10B09F0ED010895F894FFCF16
S11309F8486F72612061637475616C3A20253032E6
S1110A08643A253032643A253032640D0A0017
S9030000FC
