:100000000C9434000C9451000C9451000C94510049
:100010000C9451000C9451000C9451000C9451001C
:100020000C9451000C9451000C9451000C949802C3
:100030000C9451000C9451000C9451000C945100FC
:100040000C9451000C9451000C94DA020C9410039F
:100050000C9451000C9451000C9451000C945100DC
:100060000C9451000C94510011241FBECFEFD8E026
:10007000DEBFCDBF11E0A0E0B1E0E8E9FCE002C0E6
:1000800005900D92AA34B107D9F722E0AAE4B1E0B5
:1000900001C01D92A331B207E1F70E9436010C9412
:1000A0004A060C94000087B1816087B988B18E7FC1
:1000B00088B92FEF89EF90E0215080409040E1F720
:1000C00000C0000088B1816088B987B18E7F87B990
:1000D0003099FECF309BFECF3099FECF089520E0BF
:1000E00030E080E011C0309BFECF90EA9A95F1F7A6
:1000F000309B05C090E0880F991F816001C0880F78
:100100003099FECF2F5F3F4F2830310564F30895BB
:10011000EF92FF920F931F93CF93DF93182F092F26
:10012000F62EE72EF8940E9453000E946F00C0EE56
:10013000D1E088830E946F0089830E946F008A83C8
:100140000E946F008B830E946F008C8338818981AD
:100150002A819B81830F820F890F97B1916097B994
:1001600098B1916098B978949C81891320C08A8154
:100170001F928F9381E091E09F938F93EF92FF9274
:100180000E94600388811F928F938CE091E09F937F
:100190008F930F931F930E9460038DB79EB70C96A9
:1001A0000FB6F8949EBF0FBE8DBF81E001C080E006
:1001B000DF91CF911F910F91FF90EF9008950F93D2
:1001C0001F93CF93DF936AE471E08CE791E00E9484
:1001D00088006CE771E08EEA91E00E945903CEEA54
:1001E000D1E0FE0101900020E9F7319700E210E034
:1001F000118300836AE471E0CE010E944E030990EE
:100200000020E9F72197198308838EEA91E0DF91B6
:10021000CF911F910F91089588E48093B8001092B8
:10022000B900089584EA8093BC008091BC008823C3
:10023000E4F7089584E98093BC0008958093BB009F
:1002400084E88093BC008091BC008823E4F7089583
:1002500020E4829FC001112484688093BC008091B7
:10026000BC008823E4F78091BB000895CF93DF930F
:10027000CDB7DEB7E6970FB6F894DEBF0FBECDBFA1
:100280000E94C2020E942E020E9473020E948202F9
:1002900078940E9492028823E1F30E9495020E94C2
:1002A000DF00BC01CE0101960E9459030E94410269
:1002B000BC01CE0101960E944E03CE0101960E9420
:1002C000D202E7CF982F92959F70990F292F220F76
:1002D000220F920F8F70890F08959DEC899F912DA9
:1002E0001124969596959695392F330F232F220F2B
:1002F000220F230F821B20E1929F800D112408956D
:10030000CF93DF93CDB7DEB727970FB6F894DEBF54
:100310000FBECDBF29833A834B835C836D837E837D
:100320008F830E94120180ED0E941E0180E00E94D6
:100330001E0189810E946D010E941E018A810E9416
:100340006D010E941E018B810E946D010E941E01A1
:100350008C810E946D010E941E018D810E946D01A1
:100360000E941E018E810E946D010E941E018F81DC
:1003700099E2899F912D112492959F7024E6929F76
:10038000801911240E946D010E941E010E941A0111
:1003900027960FB6F894DEBF0FBECDBFDF91CF9189
:1003A0000895CF93DF93CDB7DEB72E970FB6F894AD
:1003B000DEBF0FBECDBF0E94120180ED0E941E0164
:1003C00080E00E941E010E94120181ED0E941E0128
:1003D00081E00E9428010E946201888781E00E94DA
:1003E00028010E946201898781E00E9428010E9401
:1003F00062018A8781E00E9428010E9462018B8746
:1004000081E00E9428010E9462018C8781E00E94A5
:1004100028010E9462018D8780E00E9428010E94CD
:1004200062018E870E941A0187E0FE013896DE0184
:10043000119601900D928A95E1F729813A814B81BD
:100440005C816D817E818F8190E02E960FB6F8944D
:10045000DEBF0FBECDBFDF91CF9108950E940C018A
:100460002091420130914301409144015091450156
:100470006091460170914701809148010E9480017E
:100480000895CF93DF93CDB7DEB727970FB6F894D3
:10049000DEBF0FBECDBF0E94D1011F922F931F92CE
:1004A0003F931F924F931F928F931F927F931F92A0
:1004B0006F9385E191E09F938F9385EE91E09F93F9
:1004C0008F930E9460030FB6F894DEBF0FBECDBFBE
:1004D00085EE91E027960FB6F894DEBF0FBECDBF34
:1004E000DF91CF91089510928000E1E8F0E0108252
:1004F00080818B60808388EA91E690938900809365
:10050000880008951092850010928400EFE6F0E0D4
:100510008081826080830895EFE6F0E080818D7FA6
:10052000808308958091070208951092070208952C
:100530001F920F920FB60F9211248F938091060293
:100540008F5F80930602843129F41092060281E0C5
:10055000809307028F910F900FBE0F901F901895F8
:10056000E1ECF0E08081806880830895E1ECF0E0C8
:1005700080818F7D80830895E1ECF0E0808180624E
:10058000808308951092C50087E68093C40086E0BA
:100590008093C20088E18093C1000E94B0020E9453
:1005A000BC020895BC0189E092E00E9459030E94B8
:1005B000BC0208951F920F920FB60F9211242F9331
:1005C0003F934F935F936F937F938F939F93AF93DB
:1005D000BF93EF93FF938091C600833711F083356B
:1005E00071F480910001882329F00E948C021092FE
:1005F000000105C00E94820281E080930001FF910A
:10060000EF91BF91AF919F918F917F916F915F918A
:100610004F913F912F910F900FBE0F901F90189503
:100620001F920F920FB60F9211242F933F934F9367
:100630005F936F937F938F939F93AF93BF93EF934A
:10064000FF93F894E0910802F0E0E75FFD4F8081AE
:10065000882371F0E0910802F0E0E75FFD4F8081B0
:100660008093C600809108028F5F8093080204C0C7
:10067000109208020E94B6027894FF91EF91BF9108
:10068000AF919F918F917F916F915F914F913F912A
:100690002F910F900FBE0F901F901895FB01DC015A
:1006A0000D900020E9F7119701900D920020E1F7DD
:1006B0000895FB01DC0101900D920020E1F70895FF
:1006C000AEE0B0E0E6E6F3E00C9421060D891E8969
:1006D00086E08C831A8309838FEF9FE79E838D8347
:1006E000AE01475E5F4F6F89788DCE0101960E9403
:1006F0008203EF81F885E00FF11F10822E96E4E06F
:100700000C943D06ABE0B0E0E8E8F3E00C9413068F
:100710006C017B018A01FC0117821682838181FFB3
:10072000CCC1CE0101963C01F6019381F70193FD06
:10073000859193FF81917F01882309F4BAC18532A5
:1007400039F493FD859193FF81917F01853229F4DE
:10075000B60190E00E947905E7CF912C212C312C35
:10076000FFE1F315D8F08B3279F038F4803279F06C
:100770008332A1F4232D20611DC08D3261F08033BE
:1007800069F4232D216016C0832D8260382EE32D5D
:10079000E4603E2E2AC0F32DF8601DC037FC2DC04A
:1007A00020ED280F2A3040F08E32B9F436FC81C19A
:1007B000232D2064322E19C036FE06C08AE0989E92
:1007C000200D1124922E11C0EAE02E9E200D11243E
:1007D000222EF32DF0623F2E08C08C3621F4832D9B
:1007E0008068382E02C0883641F4F70193FD859168
:1007F00093FF81917F018111B3CF982F9F7D9554F5
:10080000933028F40C5F1F4F9FE399830DC083360C
:1008100031F0833771F0833509F059C021C0F801F8
:10082000808189830E5F1F4F88248394912C53010C
:1008300013C02801F2E04F0E511CF801A080B180D6
:1008400036FE03C0692D70E002C06FEF7FEFC50177
:100850000E946E054C018201F32DFF773F2E16C0DA
:10086000280122E0420E511CF801A080B18036FE22
:1008700003C0692D70E002C06FEF7FEFC5010E94D9
:1008800063054C01F32DF0683F2E820133FC1BC041
:10089000822D90E088169906B0F4B60180E290E0CF
:1008A0000E9479052A94F4CFF50137FC859137FE33
:1008B00081915F01B60190E00E94790521102A9490
:1008C00021E0821A91088114910471F7E8C08436FE
:1008D00011F0893641F5F80137FE07C0608171815A
:1008E000828193810C5F1F4F08C060817181072E48
:1008F000000C880B990B0E5F1F4FF32DFF763F2ED8
:1009000097FF09C090958095709561957F4F8F4FA7
:100910009F4FF0683F2E2AE030E0A3010E94B5050A
:10092000882E861845C0853731F4232D2F7EB22EB0
:100930002AE030E025C0932D997FB92E8F36C1F083
:1009400018F4883579F0B5C0803719F0883721F070
:10095000B0C0E92FE061BE2EB4FE0DC0FB2DF460E7
:10096000BF2E09C034FE0AC0292F2660B22E06C051
:1009700028E030E005C020E130E002C020E132E0B4
:10098000F801B7FE07C060817181828193810C5F9D
:100990001F4F06C06081718180E090E00E5F1F4FA5
:1009A000A3010E94B505882E8618FB2DFF773F2EE8
:1009B00036FE0DC0232D2E7FA22E891458F434FE4E
:1009C0000BC032FC09C0832D8E7EA82E05C0B82C2A
:1009D000A32C03C0B82C01C0B92CA4FE0FC0FE018B
:1009E000E80DF11D8081803321F49A2D997EA92E86
:1009F00009C0A2FE06C0B394B39404C08A2D8678C1
:100A000009F0B394A3FC11C0A0FE06C0B21488F490
:100A1000280C922C9B180EC0B21460F4B60180E230
:100A200090E00E947905B394F7CFB21418F42B1814
:100A300002C0982C212CA4FE10C0B60180E390E0E7
:100A40000E947905A2FE17C0A1FC03C088E790E0D0
:100A500002C088E590E0B6010CC08A2D867859F076
:100A6000A1FE02C08BE201C080E2A7FC8DE2B601CC
:100A700090E00E947905891438F4B60180E390E093
:100A80000E9479059A94F7CF8A94F301E80DF11D3D
:100A90008081B60190E00E9479058110F5CF222077
:100AA00009F442CEB60180E290E00E9479052A94D2
:100AB000F6CFF6018681978102C08FEF9FEF2B96CC
:100AC000E2E10C942F06FC0105906150704001108A
:100AD000D8F7809590958E0F9F1F0895FC01615067
:100AE000704001900110D8F7809590958E0F9F1F50
:100AF00008950F931F93CF93DF93FB01238121FD73
:100B000003C08FEF9FEF2CC022FF16C04681578194
:100B1000248135814217530744F4A081B1819D019E
:100B20002F5F3F4F318320838C93268137812F5F46
:100B30003F4F3783268314C08B01EC01FB010084F7
:100B4000F185E02D0995892BE1F6D80116968D9156
:100B50009C911797019617969C938E931697CE01AA
:100B6000DF91CF911F910F910895FA01AA272830A4
:100B700051F1203181F1E8946F936E7F6E5F7F4F6A
:100B80008F4F9F4FAF4FB1E03ED0B4E03CD0670FE6
:100B9000781F891F9A1FA11D680F791F8A1F911D39
:100BA000A11D6A0F711D811D911DA11D20D009F489
:100BB00068943F912AE0269F11243019305D3193CB
:100BC000DEF6CF010895462F4770405D4193B3E0B4
:100BD0000FD0C9F7F6CF462F4F70405D4A3318F05B
:100BE000495D31FD4052419302D0A9F7EACFB4E00C
:100BF000A6959795879577956795BA95C9F70097C4
:100C00006105710508959B01AC010A2E0694579564
:100C1000479537952795BA95C9F7620F731F841FBB
:100C2000951FA01D08952F923F924F925F926F9251
:100C30007F928F929F92AF92BF92CF92DF92EF926C
:100C4000FF920F931F93CF93DF93CDB7DEB7CA1BED
:100C5000DB0B0FB6F894DEBF0FBECDBF09942A8818
:100C6000398848885F846E847D848C849B84AA84C0
:100C7000B984C884DF80EE80FD800C811B81AA814D
:100C8000B981CE0FD11D0FB6F894DEBF0FBECDBF18
:080C9000ED010895F894FFCF77
:100C98000154454D503A20253264430048554D3A99
:100CA800202532640046454348413A2025303264C5
:100CB8002F253032642F2530326420484F52413A74
:100CC80020253032643A253032643A253032640DBA
:0A0CD8000A00001E0F0209061800B2
:00000001FF
