:100000000C9454000C9471000C9471000C947100C9
:100010000C9471000C9471000C9471000C9471009C
:100020000C9471000C9471000C9471000C94EC030E
:100030000C9471000C9471000C9471000C9471007C
:100040000C9471000C9471000C9471000C9471006C
:100050000C9471000C9471000C9471000C9471005C
:100060000C9471000C947100001F000000001F0030
:10007000001F101010101F00001F181818181F0064
:10008000001F1C1C1C1C1F00001F1E1E1E1E1F000C
:10009000001F1F1F1F1F1F0003070F1F0F07030055
:1000A000181C1E1F1E1C180011241FBECFEFD8E005
:1000B000DEBFCDBF11E0A0E0B1E0EEECFCE002C09D
:1000C00005900D92A036B107D9F721E0A0E6B1E086
:1000D00001C01D92A237B207E1F70E94D0030C9431
:1000E00065060C940000FC010FB6F89460916E0157
:1000F00070916F0180917001909171010FBE3097E6
:1001000021F06083718382839383089520E030E03F
:1001100014C044B1F901E55EFE4F81E090E000803B
:1001200002C0880F991F0A94E2F7942F982B94B974
:1001300095B1892B85B92F5F3F4F243031054CF3A2
:100140008AB180688AB98BB180688BB920E030E0D1
:1001500015C04AB1F901E95EFE4F81E090E00080F0
:1001600002C0880F991F0A94E2F7982F9095942364
:100170009AB99BB1892B8BB92F5F3F4F2430310542
:1001800044F30895CF93DC01C0E04FC085B16C2FDC
:1001900070E0FB01E55EFE4F21E030E0008002C030
:1001A000220F331F0A94E2F72095282325B990E007
:1001B0002BC029B1492F50E0FA01E95EFE4F30E033
:1001C000008002C0359527950A94E2F720FD1BC0F8
:1001D00025B1FB01E55EFE4F81E090E0008002C0AA
:1001E000880F991F0A94E2F7822B85B9660F771F53
:1001F000660F771F460F571FFA01E95FFE4F808198
:100200008C9381E03AC09F5F943098F225B1FB0156
:10021000E55EFE4F81E090E0008002C0880F991FEC
:100220000A94E2F7822B85B9CF5FC33008F4AECFD2
:100230008BB18F778BB980E01AC029B1482F50E07D
:10024000FA01E95EFE4F30E0008002C03595279547
:100250000A94E2F720FD0AC08BB180688BB9FA01DD
:10026000ED5EFE4F80818C9381E007C08F5F84300C
:1002700020F38BB180688BB980E0CF9108950F9304
:100280001F93CF93DF931F92CDB7DEB78C01CE01C2
:1002900001960E94C200811106C09FEF90936001F9
:1002A0009093040113C089819091600189130BC060
:1002B00090910401891739F0F80180838981809336
:1002C000040181E003C08093600180E00F90DF9122
:1002D000CF911F910F91089565B1982F9074492F78
:1002E00050E05595479555954795559547955595A2
:1002F0004795982F9078292F30E0022E232F000C5D
:10030000221F330B000C221F331F962F997F492B7E
:10031000242B25B968B1982F9071492F50E055953D
:1003200047955595479555954795982F9072292F44
:1003300030E0359527953595279535952795962F56
:10034000997F492B242B28B99BB192609BB99BB113
:1003500091609BB925ED2A95F1F700009BB19E7F36
:100360009BB99BB19D7F9BB995ED9A95F1F70000E4
:1003700065B120E1829FC0011124AC014074552772
:100380005595479555954795559547955595479555
:100390009C0120783327022E232F000C221F330BC1
:1003A000000C221F331F362F397F432B242B25B9F6
:1003B00048B19C01207133273595279535952795B0
:1003C0003595279580729927959587959595879569
:1003D00095958795942F997F292B822B88B98BB17E
:1003E00082608BB98BB181608BB985ED8A95F1F70D
:1003F00000008BB18E7F8BB98BB18D7F8BB995ED62
:100400009A95F1F70000089565B1982F9074492FDF
:1004100050E0559547955595479555954795559570
:100420004795982F9078292F30E0022E232F000C2B
:10043000221F330B000C221F331F962F997F492B4D
:10044000242B25B968B1982F9071492F50E055950C
:1004500047955595479555954795982F9072292F13
:1004600030E0359527953595279535952795962F25
:10047000997F492B242B28B99BB191609BB9EFE957
:10048000FFE03197F1F700C000009BB19E7F9BB960
:10049000EFE9FFE03197F1F700C0000065B1F0E14E
:1004A0008F9FC0011124AC01407455275595479585
:1004B0005595479555954795559547959C012078B5
:1004C0003327022E232F000C221F330B000C221F78
:1004D000331F362F397F432B242B25B948B19C017C
:1004E000207133273595279535952795359527958F
:1004F0008072992795958795959587959595879578
:10050000942F997F292B822B88B98BB181608BB96D
:100510008FE99FE00197F1F700C000008BB18E7F5B
:100520008BB9EFE9FFE03197F1F700C000000895C3
:1005300081E00E940402089582E00E94040208956E
:100540000F931F93CF93DF93009769F0D62F8C0101
:10055000C0E007C0F801EC0FF11D80810E946C0122
:10056000CF5FCD17B8F3DF91CF911F910F91089511
:10057000623031F0633031F0613029F4805C03C0C7
:100580008C5E01C08C5A80680E9404020895EF922C
:10059000FF920F931F93CF93DF937C01862F90E000
:1005A000880F991F880F991F880F991F8064C0E0DA
:1005B000D0E00DC0F701EC0FFD1F149101E0080F12
:1005C0000E940402812F0E946C012196802FC83066
:1005D000D10580F3DF91CF911F910F91FF90EF90A4
:1005E0000895CF93DF938FE59AEE0197F1F700C05E
:1005F000000085B1897F85B988B1897F88B91BB82A
:1006000087B1866087B984B1866084B984B1866019
:1006100084B987B1866087B98AB183608AB985B1A8
:10062000897F85B988B1866088B98BB181608BB9C3
:100630008FE99FE00197F1F700C000008BB18E7F3A
:100640008BB98FE99FE00197F1F700C0000085B1F9
:10065000897F85B988B1866088B98BB181608BB993
:100660008FE99FE00197F1F700C000008BB18E7F0A
:100670008BB98FE99FE00197F1F700C0000085B1C9
:10068000897F85B988B1897F846088B98BB18160A1
:100690008BB98FE99FE00197F1F700C000008BB1A3
:1006A0008E7F8BB98FE99FE00197F1F700C00000C2
:1006B00088E20E9404028CE00E94040260E0C0E034
:1006C0000AC0D1E0D60F8C2F90E088599F4F0E942E
:1006D000C702C85F6D2FC034A0F3DF91CF9108959A
:1006E000EF92FF920F931F93CF93DF9300D000D030
:1006F0001F92CDB7DEB77B01FE01319625E0DF0109
:100700001D922A95E9F724E030E00FC06AE070E01E
:100710000E947E05E1E0F0E0EC0FFD1FE20FF31F09
:100720008083862F972F21503109009779F7BFEFEB
:10073000EB16FB0681F403C00F5F1F4F02C000E001
:1007400010E0E1E0F0E0EC0FFD1FE00FF11F208171
:10075000222391F304C005E010E00E191F0999232C
:1007600084F48DE20E946C010CC0E1E0F0E0EC0F3B
:10077000FD1FE00FF11F8081805D0E946C010F5F03
:100780001F4F053011058CF30F900F900F900F90B5
:100790000F90DF91CF911F910F91FF90EF900895EF
:1007A00080E090E00E947300CB010E9406060E9448
:1007B00007040E94650580916201882321F0109250
:1007C00062010E944805809105018823A1F31092DF
:1007D00005010E94AD04EFCF1F920F920FB60F924A
:1007E00011248F9381E080930501809161018F5FD7
:1007F000809361018A3029F41092610181E0809335
:1008000062018F910F900FBE0F901F9018950E945C
:10081000F1020E9498020E949C020E94860010929F
:1008200066010895CF93DF930E94980260E080E014
:100830000E94B80280916601823091F128F48823E9
:1008400051F08130B9F086C0833009F442C0843061
:1008500009F458C07FC06AE08FE191E00E94A002D5
:1008600061E080E00E94B80260E18AE291E00E94CB
:10087000A00270C067E08BE391E00E94A00261E0FB
:1008800080E00E94B8026CE083E491E00E94A00244
:100890008091690162E070E090E00E9470035AC0AC
:1008A00067E08BE391E00E94A00261E080E00E949B
:1008B000B8026CE083E491E00E94A002809169019B
:1008C00062E070E090E00E9470038CE30E946C0193
:1008D00041C067E08BE391E00E94A00261E080E00C
:1008E0000E94B8026CE083E491E00E94A002809133
:1008F000690162E070E090E00E9470038EE30E9464
:100900006C0128C067E080E591E00E94A00261E0F0
:1009100080E00E94B80266E088E591E00E94A002B3
:10092000C3E6D1E0888162E070E090E00E9470034D
:100930008AE30E946C01898162E070E090E00E948D
:1009400070038AE30E946C018A8162E070E090E0AB
:100950000E947003DF91CF910895809166018430E9
:1009600069F480910601811106C08EE18093060131
:100970001092660103C081508093060188E691E0E1
:100980000E943F01882309F47AC08091660181307A
:10099000E1F020F0843008F072C057C08091680107
:1009A000813409F06CC010926901109267010E94B5
:1009B00042050E94010664E670E00E947E05809375
:1009C0006A0181E0809366015AC0809168018A3291
:1009D00019F18434F1F0833221F59091690180910D
:1009E0006A0198130CC084E0809366010E945E0542
:1009F00060936301709364018093650140C089171F
:100A000020F482E0809366013AC083E0809366011F
:100A100036C01092660133C01092690110926701CE
:100A20002EC090916701923051F18A3040F52091AB
:100A30006901220F322F330F330F230F820F809360
:100A400069019F5F909367011AC0809168018434A7
:100A500019F41092660113C08A3241F410926901B0
:100A60001092670181E08093660109C08A3038F4F2
:100A70008093690181E080936701809366010E9401
:100A800012040895EBE6F1E01082118212820895BB
:100A9000EBE6F1E082818F5F82838C3371F4128206
:100AA00081818F5F81838C3341F4118280818F5FDC
:100AB0008083883111F410926B01089560916B016D
:100AC00070916C0180916D01089510928000E1E8B1
:100AD000F0E01082109285001092840080818B607B
:100AE000808388EA91E69093890080938800EFE6FE
:100AF000F0E08081826080837894089597FB072ED0
:100B000016F4009407D077FD09D00E94A10507FCD8
:100B100005D03EF4909581959F4F0895709561950D
:100B20007F4F0895A29FB001B39FC001A39F700D96
:100B3000811D1124911DB29F700D811D1124911DE5
:100B40000895AA1BBB1B51E107C0AA1FBB1FA61714
:100B5000B70710F0A61BB70B881F991F5A95A9F766
:100B600080959095BC01CD0108958F929F92AF9290
:100B7000BF92CF92DF92EF92FF92CF93DF93EC017F
:100B8000688179818A819B81611571058105910553
:100B900021F464E279ED8BE597E02DE133EF41E05C
:100BA00050E00E94110649015A019B01AC01A7EADD
:100BB000B1E40E9430066B017C01ACEEB4EFA501FC
:100BC00094010E943E06DC01CB018C0D9D1DAE1DE3
:100BD000BF1DB7FF03C00197A109B048888399835F
:100BE000AA83BB839F77DF91CF91FF90EF90DF9037
:100BF000CF90BF90AF909F908F9008950E94B505C1
:100C0000089580E091E00E94B5050895A0E0B0E06D
:100C10008093000190930101A0930201B09303011E
:100C20000895052E97FB1EF400940E94280657FD98
:100C300007D00E94430607FC03D04EF40C9428060C
:100C400050954095309521953F4F4F4F5F4F0895F8
:100C500090958095709561957F4F8F4F9F4F089528
:100C60000E949205A59F900DB49F900DA49F800DAA
:100C7000911D11240895B7FF0C9430060E94300690
:100C8000821B930B0895A1E21A2EAA1BBB1BFD0128
:100C90000DC0AA1FBB1FEE1FFF1FA217B307E4075B
:100CA000F50720F0A21BB30BE40BF50B661F771FB3
:100CB000881F991F1A9469F7609570958095909593
:0E0CC0009B01AC01BD01CF010895F894FFCF58
:100CCE0001000000FF011E01020341040506420758
:100CDE000809432A002344030504020403000742C3
:100CEE0049454E56454E49444F00502F204A5547D0
:100CFE0041522050554C53452041004A5547414ED4
:100D0E00444F00494E4752455345204E554D3A00EB
:100D1E0047414E41444F520054494D453A20000040
:00000001FF
