:100000000C9454000C9471000C9471000C947100C9
:100010000C9471000C9471000C9471000C9471009C
:100020000C9471000C9471000C9471000C9471008C
:100030000C9471000C9471000C9471000C9471007C
:100040000C9471000C9471000C9471000C9471006C
:100050000C9471000C9471000C9471000C9471005C
:100060000C9471000C947100001F000000001F0030
:10007000001F101010101F00001F181818181F0064
:10008000001F1C1C1C1C1F00001F1E1E1E1E1F000C
:10009000001F1F1F1F1F1F0003070F1F0F07030055
:1000A000181C1E1F1E1C180011241FBECFEFD8E005
:1000B000DEBFCDBF11E0A0E0B1E0E2E6F7E002C0B4
:1000C00005900D92A431B107D9F721E0A4E1B1E088
:1000D00001C01D92A931B207E1F70E9454030C94AC
:1000E000AF030C94000065B1982F9074492F50E035
:1000F00055954795559547955595479555954795E8
:10010000982F9078292F30E0022E232F000C221FE9
:10011000330B000C221F331F962F997F492B242B62
:1001200025B968B1982F9071492F50E055954795A2
:100130005595479555954795982F9072292F30E002
:10014000359527953595279535952795962F997F40
:10015000492B242B28B99BB192609BB99BB191602C
:100160009BB925ED2A95F1F700009BB19E7F9BB9C5
:100170009BB19D7F9BB995ED9A95F1F7000065B114
:1001800020E1829FC0011124AC0140745527559590
:1001900047955595479555954795559547959C0194
:1001A00020783327022E232F000C221F330B000C44
:1001B000221F331F362F397F432B242B25B948B1FB
:1001C0009C012071332735952795359527953595D1
:1001D00027958072992795958795959587959595FB
:1001E0008795942F997F292B822B88B98BB18260B8
:1001F0008BB98BB181608BB985ED8A95F1F70000E1
:100200008BB18E7F8BB98BB18D7F8BB995ED9A9524
:10021000F1F70000089565B1982F9074492F50E0D0
:1002200055954795559547955595479555954795B6
:10023000982F9078292F30E0022E232F000C221FB8
:10024000330B000C221F331F962F997F492B242B31
:1002500025B968B1982F9071492F50E05595479571
:100260005595479555954795982F9072292F30E0D1
:10027000359527953595279535952795962F997F0F
:10028000492B242B28B99BB191609BB9EFE9FFE082
:100290003197F1F700C000009BB19E7F9BB9EFE959
:1002A000FFE03197F1F700C0000065B1F0E18F9FEA
:1002B000C0011124AC0140745527559547955595BB
:1002C000479555954795559547959C012078332737
:1002D000022E232F000C221F330B000C221F331F72
:1002E000362F397F432B242B25B948B19C0120712F
:1002F0003327359527953595279535952795807220
:100300009927959587959595879595958795942F98
:10031000997F292B822B88B98BB181608BB98FE9AA
:100320009FE00197F1F700C000008BB18E7F8BB981
:10033000EFE9FFE03197F1F700C00000089581E098
:100340000E940B01089582E00E940B0108950F9313
:100350001F93CF93DF93009769F0D62F8C01C0E0F5
:1003600007C0F801EC0FF11D80810E947300CF5F80
:10037000CD17B8F3DF91CF911F910F91089562309F
:1003800031F0633031F0613029F4805C03C08C5E61
:1003900001C08C5A80680E940B010895EF92FF9271
:1003A0000F931F93CF93DF937C01862F90E0880FEC
:1003B000991F880F991F880F991F8064C0E0D0E0B3
:1003C0000DC0F701EC0FFD1F149101E0080F0E9412
:1003D0000B01812F0E9473002196802FC830D10518
:1003E00080F3DF91CF911F910F91FF90EF900895CF
:1003F000CF93DF938FE59AEE0197F1F700C00000ED
:1004000085B1897F85B988B1897F88B91BB887B1E3
:10041000866087B984B1866084B984B1866084B906
:1004200087B1866087B98AB183608AB985B1897FCF
:1004300085B988B1866088B98BB181608BB98FE945
:100440009FE00197F1F700C000008BB18E7F8BB960
:100450008FE99FE00197F1F700C0000085B1897F27
:1004600085B988B1866088B98BB181608BB98FE915
:100470009FE00197F1F700C000008BB18E7F8BB930
:100480008FE99FE00197F1F700C0000085B1897FF7
:1004900085B988B1897F846088B98BB181608BB957
:1004A0008FE99FE00197F1F700C000008BB18E7FCC
:1004B0008BB98FE99FE00197F1F700C0000088E257
:1004C0000E940B018CE00E940B0160E0C0E00AC0BA
:1004D000D1E0D60F8C2F90E088599F4F0E94CE011B
:1004E000C85F6D2FC034A0F3DF91CF910895EF92D4
:1004F000FF920F931F93CF93DF9300D000D01F92F2
:10050000CDB7DEB77B01FE01319625E0DF011D92FC
:100510002A95E9F724E030E00FC06AE070E00E941D
:100520008703E1E0F0E0EC0FFD1FE20FF31F808393
:10053000862F972F21503109009779F7BFEFEB16DF
:10054000FB0681F403C00F5F1F4F02C000E010E004
:10055000E1E0F0E0EC0FFD1FE00FF11F208122230E
:1005600091F304C005E010E00E191F09992384F4EB
:100570008DE20E9473000CC0E1E0F0E0EC0FFD1F83
:10058000E00FF11F8081805D0E9473000F5F1F4F9D
:10059000053011058CF30F900F900F900F900F9076
:1005A000DF91CF911F910F91FF90EF90089584B14B
:1005B000816084B985B18E7F85B92FEF80EE90E0A0
:1005C000215080409040E1F700C0000084B18E7F50
:1005D00084B91899FECF189BFECF1899FECF0895C5
:1005E00020E030E080E011C0189BFECF90EA9A95A1
:1005F000F1F7189B05C090E0880F991F816001C03A
:10060000880F1899FECF2F5F3F4F2830310564F3D4
:1006100008950F931F93CF93DF93082F162FD42F96
:10062000C22F60E080E00E94BF0165E080E091E0C1
:100630000E94A70162E070E0802F90E00E947702A4
:1006400061E086E091E00E94A70162E070E0812F06
:1006500090E00E94770261E088E091E00E94A701AB
:1006600061E080E00E94BF0166E08AE091E00E94C4
:10067000A70162E070E08D2F90E00E94770261E0B8
:1006800086E091E00E94A70162E070E08C2F90E08C
:100690000E94770261E081E191E00E94A701DF9171
:1006A000CF911F910F9108950E94F8010E949F0120
:1006B0000E94A3010E94D7020E94F002C4E1D1E08F
:1006C00088830E94F00289830E94F0028A830E943C
:1006D000F0028B830E94F0028C83388169814A8109
:1006E0002B81932F960F940F920F891304C0832FA1
:1006F0000E94090302C00E94D7022FEF87EA91E609
:10070000215080409040E1F700C00000D3CF97FB1C
:10071000072E16F4009407D077FD09D00E949B03A2
:1007200007FC05D03EF4909581959F4F08957095F4
:1007300061957F4F0895AA1BBB1B51E107C0AA1FFB
:10074000BB1FA617B70710F0A61BB70B881F991F72
:100750005A95A9F780959095BC01CD010895F8941C
:02076000FFCFC9
:1007620048756D3A20002E00250054656D703A20C0
:040772000043000040
:00000001FF
